:0308FC00010800F0
:1008E700EF1FAC0670011E4C600A7D027CEFDCFE38
:0408F700DDFC80ECB8
:0108FB0022DA
:10088C00C2A020B128800320B1097F147E00120879
:10089C00E780F40508E508B40803E4F508AF08742C
:1008AC0001A807088002C333D8FCF4F5A020B0D20D
:1008BC00800320B0097F147E001208E780F4E5085D
:1008CC00700575080780021508AF087401A80708A1
:0B08DC008002C333D8FCF4F5A080A715
:03000000020800F3
:0C080000787FE4F6D8FD758108020847F7
:10080C0002088CE493A3F8E493A34003F68001F26E
:10081C0008DFF48029E493A3F85407240CC8C333ED
:10082C00C4540F4420C8834004F456800146F6DFBC
:10083C00E4800B01020408102040809008FCE47E48
:10084C00019360BCA3FF543F30E509541FFEE493B1
:10085C00A360010ECF54C025E060A840B8E493A378
:10086C00FAE493A3F8E493A3C8C582C8CAC583CAA3
:10087C00F0A3C8C582C8CAC583CADFE9DEE780BE5B
:0108FF0000F8
:00000001FF
