:1008F5001408003F0006005B004F0066006D007D98
:060905000007007F006FF7
:10088C00EE705BEF14B4080050549008A475F0039C
:10089C00A4C58325F0C583730208BC0208C00208F6
:1008AC00C40208C80208CC0208D40208DC0208E41E
:1008BC00D2A4800ED2A48012D2A48016D2A4801A04
:1008CC00C2A4D2A3D2A28016C2A4D2A3C2A2800E6A
:1008DC00C2A4C2A3D2A28006C2A4C2A3C2A2ED2506
:0908EC00E02408F808E6F5A0225A
:0B090C007D027C007F077E0002088C4B
:03000000020800F3
:0C080000787FE4F6D8FD75811B020847E4
:10080C0002090CE493A3F8E493A34003F68001F2ED
:10081C0008DFF48029E493A3F85407240CC8C333ED
:10082C00C4540F4420C8834004F456800146F6DFBC
:10083C00E4800B01020408102040809008F5E47E4F
:10084C00019360BCA3FF543F30E509541FFEE493B1
:10085C00A360010ECF54C025E060A840B8E493A378
:10086C00FAE493A3F8E493A3C8C582C8CAC583CAA3
:10087C00F0A3C8C582C8CAC583CADFE9DEE780BE5B
:01090B0000EB
:00000001FF
